{
  "contractName": "KryptoBird",
  "abi": [
    {
      "inputs": [],
      "stateMutability": "nonpayable",
      "type": "constructor"
    },
    {
      "anonymous": false,
      "inputs": [
        {
          "indexed": true,
          "internalType": "address",
          "name": "from",
          "type": "address"
        },
        {
          "indexed": true,
          "internalType": "address",
          "name": "to",
          "type": "address"
        },
        {
          "indexed": true,
          "internalType": "uint256",
          "name": "tokenId",
          "type": "uint256"
        }
      ],
      "name": "Transfer",
      "type": "event"
    },
    {
      "inputs": [
        {
          "internalType": "address",
          "name": "_owner",
          "type": "address"
        }
      ],
      "name": "balanceOf",
      "outputs": [
        {
          "internalType": "uint256",
          "name": "",
          "type": "uint256"
        }
      ],
      "stateMutability": "view",
      "type": "function",
      "constant": true
    },
    {
      "inputs": [
        {
          "internalType": "uint256",
          "name": "",
          "type": "uint256"
        }
      ],
      "name": "kryptoBirdz",
      "outputs": [
        {
          "internalType": "string",
          "name": "",
          "type": "string"
        }
      ],
      "stateMutability": "view",
      "type": "function",
      "constant": true
    },
    {
      "inputs": [],
      "name": "name",
      "outputs": [
        {
          "internalType": "string",
          "name": "",
          "type": "string"
        }
      ],
      "stateMutability": "view",
      "type": "function",
      "constant": true
    },
    {
      "inputs": [
        {
          "internalType": "uint256",
          "name": "_tokenId",
          "type": "uint256"
        }
      ],
      "name": "ownerOf",
      "outputs": [
        {
          "internalType": "address",
          "name": "",
          "type": "address"
        }
      ],
      "stateMutability": "view",
      "type": "function",
      "constant": true
    },
    {
      "inputs": [],
      "name": "symbol",
      "outputs": [
        {
          "internalType": "string",
          "name": "",
          "type": "string"
        }
      ],
      "stateMutability": "view",
      "type": "function",
      "constant": true
    },
    {
      "inputs": [
        {
          "internalType": "string",
          "name": "_kryptoBird",
          "type": "string"
        }
      ],
      "name": "mint",
      "outputs": [],
      "stateMutability": "nonpayable",
      "type": "function"
    }
  ],
  "bytecode": "0x60806040523480156200001157600080fd5b506040518060400160405280600a81526020017f4b727970746f42697264000000000000000000000000000000000000000000008152506040518060400160405280600681526020017f4b424952445a00000000000000000000000000000000000000000000000000008152508181816000908051906020019062000098929190620000bc565b508060019080519060200190620000b1929190620000bc565b5050505050620001d1565b828054620000ca906200019b565b90600052602060002090601f016020900481019282620000ee57600085556200013a565b82601f106200010957805160ff19168380011785556200013a565b828001600101855582156200013a579182015b82811115620001395782518255916020019190600101906200011c565b5b5090506200014991906200014d565b5090565b5b80821115620001685760008160009055506001016200014e565b5090565b7f4e487b7100000000000000000000000000000000000000000000000000000000600052602260045260246000fd5b60006002820490506001821680620001b457607f821691505b60208210811415620001cb57620001ca6200016c565b5b50919050565b610f7280620001e16000396000f3fe608060405234801561001057600080fd5b50600436106100625760003560e01c806306fdde03146100675780636352211e1461008557806370a08231146100b557806393ab6e56146100e557806395d89b4114610115578063d85d3d2714610133575b600080fd5b61006f61014f565b60405161007c91906108c4565b60405180910390f35b61009f600480360381019061009a9190610930565b6101e1565b6040516100ac919061099e565b60405180910390f35b6100cf60048036038101906100ca91906109e5565b61025d565b6040516100dc9190610a21565b60405180910390f35b6100ff60048036038101906100fa9190610930565b610315565b60405161010c91906108c4565b60405180910390f35b61011d6103c1565b60405161012a91906108c4565b60405180910390f35b61014d60048036038101906101489190610b71565b610453565b005b60606000805461015e90610be9565b80601f016020809104026020016040519081016040528092919081815260200182805461018a90610be9565b80156101d75780601f106101ac576101008083540402835291602001916101d7565b820191906000526020600020905b8154815290600101906020018083116101ba57829003601f168201915b5050505050905090565b6000806002600084815260200190815260200160002060009054906101000a900473ffffffffffffffffffffffffffffffffffffffff169050600073ffffffffffffffffffffffffffffffffffffffff168173ffffffffffffffffffffffffffffffffffffffff16141561025457600080fd5b80915050919050565b60008073ffffffffffffffffffffffffffffffffffffffff168273ffffffffffffffffffffffffffffffffffffffff1614156102ce576040517f08c379a00000000000000000000000000000000000000000000000000000000081526004016102c590610c8d565b60405180910390fd5b600360008373ffffffffffffffffffffffffffffffffffffffff1673ffffffffffffffffffffffffffffffffffffffff168152602001908152602001600020549050919050565b6004818154811061032557600080fd5b90600052602060002001600091509050805461034090610be9565b80601f016020809104026020016040519081016040528092919081815260200182805461036c90610be9565b80156103b95780601f1061038e576101008083540402835291602001916103b9565b820191906000526020600020905b81548152906001019060200180831161039c57829003601f168201915b505050505081565b6060600180546103d090610be9565b80601f01602080910402602001604051908101604052809291908181526020018280546103fc90610be9565b80156104495780601f1061041e57610100808354040283529160200191610449565b820191906000526020600020905b81548152906001019060200180831161042c57829003601f168201915b5050505050905090565b6005816040516104639190610ce9565b908152602001604051809103902060009054906101000a900460ff16156104bf576040517f08c379a00000000000000000000000000000000000000000000000000000000081526004016104b690610d72565b60405180910390fd5b6004819080600181540180825580915050600190039060005260206000200160009091909190915090805190602001906104fa929190610788565b506000600160048054905061050f9190610dc1565b905061051b3382610556565b600160058360405161052d9190610ce9565b908152602001604051809103902060006101000a81548160ff0219169083151502179055505050565b600073ffffffffffffffffffffffffffffffffffffffff168273ffffffffffffffffffffffffffffffffffffffff1614156105c6576040517f08c379a00000000000000000000000000000000000000000000000000000000081526004016105bd90610e67565b60405180910390fd5b6105cf81610716565b1561060f576040517f08c379a000000000000000000000000000000000000000000000000000000000815260040161060690610ed3565b60405180910390fd5b816002600083815260200190815260200160002060006101000a81548173ffffffffffffffffffffffffffffffffffffffff021916908373ffffffffffffffffffffffffffffffffffffffff160217905550600360008373ffffffffffffffffffffffffffffffffffffffff1673ffffffffffffffffffffffffffffffffffffffff16815260200190815260200160002060008154809291906106b190610ef3565b9190505550808273ffffffffffffffffffffffffffffffffffffffff16600073ffffffffffffffffffffffffffffffffffffffff167fddf252ad1be2c89b69c2b068fc378daa952ba7f163c4a11628f55a4df523b3ef60405160405180910390a45050565b6000806002600084815260200190815260200160002060009054906101000a900473ffffffffffffffffffffffffffffffffffffffff169050600073ffffffffffffffffffffffffffffffffffffffff168173ffffffffffffffffffffffffffffffffffffffff161415915050919050565b82805461079490610be9565b90600052602060002090601f0160209004810192826107b657600085556107fd565b82601f106107cf57805160ff19168380011785556107fd565b828001600101855582156107fd579182015b828111156107fc5782518255916020019190600101906107e1565b5b50905061080a919061080e565b5090565b5b8082111561082757600081600090555060010161080f565b5090565b600081519050919050565b600082825260208201905092915050565b60005b8381101561086557808201518184015260208101905061084a565b83811115610874576000848401525b50505050565b6000601f19601f8301169050919050565b60006108968261082b565b6108a08185610836565b93506108b0818560208601610847565b6108b98161087a565b840191505092915050565b600060208201905081810360008301526108de818461088b565b905092915050565b6000604051905090565b600080fd5b600080fd5b6000819050919050565b61090d816108fa565b811461091857600080fd5b50565b60008135905061092a81610904565b92915050565b600060208284031215610946576109456108f0565b5b60006109548482850161091b565b91505092915050565b600073ffffffffffffffffffffffffffffffffffffffff82169050919050565b60006109888261095d565b9050919050565b6109988161097d565b82525050565b60006020820190506109b3600083018461098f565b92915050565b6109c28161097d565b81146109cd57600080fd5b50565b6000813590506109df816109b9565b92915050565b6000602082840312156109fb576109fa6108f0565b5b6000610a09848285016109d0565b91505092915050565b610a1b816108fa565b82525050565b6000602082019050610a366000830184610a12565b92915050565b600080fd5b600080fd5b7f4e487b7100000000000000000000000000000000000000000000000000000000600052604160045260246000fd5b610a7e8261087a565b810181811067ffffffffffffffff82111715610a9d57610a9c610a46565b5b80604052505050565b6000610ab06108e6565b9050610abc8282610a75565b919050565b600067ffffffffffffffff821115610adc57610adb610a46565b5b610ae58261087a565b9050602081019050919050565b82818337600083830152505050565b6000610b14610b0f84610ac1565b610aa6565b905082815260208101848484011115610b3057610b2f610a41565b5b610b3b848285610af2565b509392505050565b600082601f830112610b5857610b57610a3c565b5b8135610b68848260208601610b01565b91505092915050565b600060208284031215610b8757610b866108f0565b5b600082013567ffffffffffffffff811115610ba557610ba46108f5565b5b610bb184828501610b43565b91505092915050565b7f4e487b7100000000000000000000000000000000000000000000000000000000600052602260045260246000fd5b60006002820490506001821680610c0157607f821691505b60208210811415610c1557610c14610bba565b5b50919050565b7f6f776e657220717565727920666f72206e6f6e2d6578697374656e7420746f6b60008201527f656e000000000000000000000000000000000000000000000000000000000000602082015250565b6000610c77602283610836565b9150610c8282610c1b565b604082019050919050565b60006020820190508181036000830152610ca681610c6a565b9050919050565b600081905092915050565b6000610cc38261082b565b610ccd8185610cad565b9350610cdd818560208601610847565b80840191505092915050565b6000610cf58284610cb8565b915081905092915050565b7f4572726f72202d206b727970746f4269726420616c726561647920657869737460008201527f7300000000000000000000000000000000000000000000000000000000000000602082015250565b6000610d5c602183610836565b9150610d6782610d00565b604082019050919050565b60006020820190508181036000830152610d8b81610d4f565b9050919050565b7f4e487b7100000000000000000000000000000000000000000000000000000000600052601160045260246000fd5b6000610dcc826108fa565b9150610dd7836108fa565b925082821015610dea57610de9610d92565b5b828203905092915050565b7f4552433732313a206d696e74696e6720746f20746865207a65726f206164647260008201527f6573730000000000000000000000000000000000000000000000000000000000602082015250565b6000610e51602383610836565b9150610e5c82610df5565b604082019050919050565b60006020820190508181036000830152610e8081610e44565b9050919050565b7f4552433732313a20746f6b656e20616c7265616479206d696e74656400000000600082015250565b6000610ebd601c83610836565b9150610ec882610e87565b602082019050919050565b60006020820190508181036000830152610eec81610eb0565b9050919050565b6000610efe826108fa565b91507fffffffffffffffffffffffffffffffffffffffffffffffffffffffffffffffff821415610f3157610f30610d92565b5b60018201905091905056fea264697066735822122015299a869be92a3b3900e1825cd38194f40681a235938561d49cda4269d8b0b264736f6c634300080a0033",
  "immutableReferences": {},
  "source": "// SPDX-License-Identifier: MIT\r\npragma solidity ^0.8.10;\r\n\r\nimport \"./ERC721Connector.sol\";\r\n\r\ncontract KryptoBird is ERC721Connector {\r\n    constructor() ERC721Connector(\"KryptoBird\", \"KBIRDZ\") {}\r\n\r\n    string[] public kryptoBirdz;\r\n\r\n    mapping(string => bool) _kryptoBirdzExists;\r\n\r\n    function mint(string memory _kryptoBird) public {\r\n        require(\r\n            !_kryptoBirdzExists[_kryptoBird],\r\n            \"Error - kryptoBird already exists\"\r\n        );\r\n\r\n        kryptoBirdz.push(_kryptoBird);\r\n        uint256 _id = kryptoBirdz.length - 1;\r\n\r\n        _mint(msg.sender, _id);\r\n\r\n        _kryptoBirdzExists[_kryptoBird] = true;\r\n    }\r\n}\r\n",
  "sourcePath": "D:\\blockchain-workshop\\nft-marketplace\\src\\contracts\\KryptoBird.sol",
  "compiler": {
    "name": "solc",
    "version": "0.8.10+commit.fc410830.Emscripten.clang"
  },
  "schemaVersion": "3.4.4",
  "updatedAt": "2022-01-19T15:05:59.976Z",
  "networkType": "ethereum",
  "devdoc": {
    "kind": "dev",
    "methods": {},
    "version": 1
  },
  "userdoc": {
    "kind": "user",
    "methods": {},
    "version": 1
  }
}